{
  "_format": "hh-sol-artifact-1",
  "contractName": "Crowdfunding",
  "sourceName": "contracts/Crowdfunding.sol",
  "abi": [
    {
      "anonymous": false,
      "inputs": [
        {
          "indexed": false,
          "internalType": "uint256",
          "name": "campaignId",
          "type": "uint256"
        },
        {
          "indexed": true,
          "internalType": "address",
          "name": "creator",
          "type": "address"
        },
        {
          "indexed": false,
          "internalType": "uint256",
          "name": "goal",
          "type": "uint256"
        },
        {
          "indexed": false,
          "internalType": "uint256",
          "name": "deadline",
          "type": "uint256"
        }
      ],
      "name": "CampaignCreated",
      "type": "event"
    },
    {
      "anonymous": false,
      "inputs": [
        {
          "indexed": false,
          "internalType": "uint256",
          "name": "campaignId",
          "type": "uint256"
        },
        {
          "indexed": false,
          "internalType": "uint256",
          "name": "amount",
          "type": "uint256"
        }
      ],
      "name": "FundsClaimed",
      "type": "event"
    },
    {
      "anonymous": false,
      "inputs": [
        {
          "indexed": false,
          "internalType": "uint256",
          "name": "campaignId",
          "type": "uint256"
        },
        {
          "indexed": true,
          "internalType": "address",
          "name": "user",
          "type": "address"
        },
        {
          "indexed": false,
          "internalType": "uint256",
          "name": "amount",
          "type": "uint256"
        }
      ],
      "name": "Pleged",
      "type": "event"
    },
    {
      "anonymous": false,
      "inputs": [
        {
          "indexed": false,
          "internalType": "uint256",
          "name": "campaignId",
          "type": "uint256"
        },
        {
          "indexed": true,
          "internalType": "address",
          "name": "user",
          "type": "address"
        },
        {
          "indexed": false,
          "internalType": "uint256",
          "name": "amount",
          "type": "uint256"
        }
      ],
      "name": "RefundIssued",
      "type": "event"
    },
    {
      "anonymous": false,
      "inputs": [
        {
          "indexed": false,
          "internalType": "uint256",
          "name": "campaignId",
          "type": "uint256"
        },
        {
          "indexed": true,
          "internalType": "address",
          "name": "user",
          "type": "address"
        },
        {
          "indexed": false,
          "internalType": "uint256",
          "name": "amount",
          "type": "uint256"
        }
      ],
      "name": "WithdrawnPledge",
      "type": "event"
    },
    {
      "inputs": [],
      "name": "campaignCount",
      "outputs": [
        {
          "internalType": "uint256",
          "name": "",
          "type": "uint256"
        }
      ],
      "stateMutability": "view",
      "type": "function"
    },
    {
      "inputs": [
        {
          "internalType": "uint256",
          "name": "",
          "type": "uint256"
        }
      ],
      "name": "campaigns",
      "outputs": [
        {
          "internalType": "address",
          "name": "creator",
          "type": "address"
        },
        {
          "internalType": "uint256",
          "name": "goal",
          "type": "uint256"
        },
        {
          "internalType": "uint256",
          "name": "pledged",
          "type": "uint256"
        },
        {
          "internalType": "uint32",
          "name": "deadline",
          "type": "uint32"
        },
        {
          "internalType": "bool",
          "name": "claimed",
          "type": "bool"
        }
      ],
      "stateMutability": "view",
      "type": "function"
    },
    {
      "inputs": [
        {
          "internalType": "uint256",
          "name": "_campaignId",
          "type": "uint256"
        }
      ],
      "name": "claimFunds",
      "outputs": [],
      "stateMutability": "nonpayable",
      "type": "function"
    },
    {
      "inputs": [
        {
          "internalType": "uint256",
          "name": "_goal",
          "type": "uint256"
        },
        {
          "internalType": "uint32",
          "name": "_duration",
          "type": "uint32"
        }
      ],
      "name": "createCampaign",
      "outputs": [],
      "stateMutability": "nonpayable",
      "type": "function"
    },
    {
      "inputs": [
        {
          "internalType": "uint256",
          "name": "_campaignId",
          "type": "uint256"
        }
      ],
      "name": "pledge",
      "outputs": [],
      "stateMutability": "payable",
      "type": "function"
    },
    {
      "inputs": [
        {
          "internalType": "uint256",
          "name": "",
          "type": "uint256"
        },
        {
          "internalType": "address",
          "name": "",
          "type": "address"
        }
      ],
      "name": "pledges",
      "outputs": [
        {
          "internalType": "uint256",
          "name": "",
          "type": "uint256"
        }
      ],
      "stateMutability": "view",
      "type": "function"
    },
    {
      "inputs": [
        {
          "internalType": "uint256",
          "name": "_campaignId",
          "type": "uint256"
        }
      ],
      "name": "refund",
      "outputs": [],
      "stateMutability": "nonpayable",
      "type": "function"
    },
    {
      "inputs": [
        {
          "internalType": "uint256",
          "name": "_campaignId",
          "type": "uint256"
        }
      ],
      "name": "withdrawPledge",
      "outputs": [],
      "stateMutability": "nonpayable",
      "type": "function"
    }
  ],
  "bytecode": "0x608060405234801561001057600080fd5b5061145e806100206000396000f3fe60806040526004361061007b5760003560e01c80637274e30d1161004e5780637274e30d1461013c5780637326c9c0146101675780638e97f52414610183578063f131ab79146101c05761007b565b8063141961bc146100805780631b55e338146100c1578063278ecde1146100ea57806333df89a014610113575b600080fd5b34801561008c57600080fd5b506100a760048036038101906100a29190610ce4565b6101e9565b6040516100b8959493929190610d9b565b60405180910390f35b3480156100cd57600080fd5b506100e860048036038101906100e39190610ce4565b61025c565b005b3480156100f657600080fd5b50610111600480360381019061010c9190610ce4565b6104cb565b005b34801561011f57600080fd5b5061013a60048036038101906101359190610e1a565b610712565b005b34801561014857600080fd5b506101516108dc565b60405161015e9190610e5a565b60405180910390f35b610181600480360381019061017c9190610ce4565b6108e2565b005b34801561018f57600080fd5b506101aa60048036038101906101a59190610ea1565b610a6d565b6040516101b79190610e5a565b60405180910390f35b3480156101cc57600080fd5b506101e760048036038101906101e29190610ce4565b610a92565b005b60006020528060005260406000206000915090508060000160009054906101000a900473ffffffffffffffffffffffffffffffffffffffff16908060010154908060020154908060030160009054906101000a900463ffffffff16908060030160049054906101000a900460ff16905085565b600080600083815260200190815260200160002090508060030160009054906101000a900463ffffffff1663ffffffff164210156102cf576040517f08c379a00000000000000000000000000000000000000000000000000000000081526004016102c690610f3e565b60405180910390fd5b80600101548160020154101561031a576040517f08c379a000000000000000000000000000000000000000000000000000000000815260040161031190610faa565b60405180910390fd5b3373ffffffffffffffffffffffffffffffffffffffff168160000160009054906101000a900473ffffffffffffffffffffffffffffffffffffffff1673ffffffffffffffffffffffffffffffffffffffff16146103ac576040517f08c379a00000000000000000000000000000000000000000000000000000000081526004016103a390611016565b60405180910390fd5b8060030160049054906101000a900460ff16156103fe576040517f08c379a00000000000000000000000000000000000000000000000000000000081526004016103f590611082565b60405180910390fd5b60018160030160046101000a81548160ff0219169083151502179055508060000160009054906101000a900473ffffffffffffffffffffffffffffffffffffffff1673ffffffffffffffffffffffffffffffffffffffff166108fc82600201549081150290604051600060405180830381858888f19350505050158015610489573d6000803e3d6000fd5b507ff5113038110e08c7fac91012f7b68c6010271f7653a75b250e714f6d1e2d75908282600201546040516104bf9291906110a2565b60405180910390a15050565b600080600083815260200190815260200160002090508060030160009054906101000a900463ffffffff1663ffffffff1642101561053e576040517f08c379a000000000000000000000000000000000000000000000000000000000815260040161053590610f3e565b60405180910390fd5b8060010154816002015410610588576040517f08c379a000000000000000000000000000000000000000000000000000000000815260040161057f90611117565b60405180910390fd5b60006002600084815260200190815260200160002060003373ffffffffffffffffffffffffffffffffffffffff1673ffffffffffffffffffffffffffffffffffffffff16815260200190815260200160002054905060008111610620576040517f08c379a000000000000000000000000000000000000000000000000000000000815260040161061790611183565b60405180910390fd5b60006002600085815260200190815260200160002060003373ffffffffffffffffffffffffffffffffffffffff1673ffffffffffffffffffffffffffffffffffffffff168152602001908152602001600020819055503373ffffffffffffffffffffffffffffffffffffffff166108fc829081150290604051600060405180830381858888f193505050501580156106bc573d6000803e3d6000fd5b503373ffffffffffffffffffffffffffffffffffffffff167f7a482fdeb6bc9a1376f597068a214a7a39472bb2eff1b8cad21ba04f49ddca1b84836040516107059291906110a2565b60405180910390a2505050565b60008211610755576040517f08c379a000000000000000000000000000000000000000000000000000000000815260040161074c906111ef565b60405180910390fd5b6001806000828254610767919061123e565b925050819055506040518060a001604052803373ffffffffffffffffffffffffffffffffffffffff1681526020018381526020016000815260200182426107ae9190611272565b63ffffffff16815260200160001515815250600080600154815260200190815260200160002060008201518160000160006101000a81548173ffffffffffffffffffffffffffffffffffffffff021916908373ffffffffffffffffffffffffffffffffffffffff160217905550602082015181600101556040820151816002015560608201518160030160006101000a81548163ffffffff021916908363ffffffff16021790555060808201518160030160046101000a81548160ff0219169083151502179055509050503373ffffffffffffffffffffffffffffffffffffffff167f91b289a829e71d811b8c69e4a24ba2d40d115d8a236e9a724cb3bb2d43cf72236001548484426108c19190611272565b6040516108d0939291906112e5565b60405180910390a25050565b60015481565b600080600083815260200190815260200160002090508060030160009054906101000a900463ffffffff1663ffffffff164210610954576040517f08c379a000000000000000000000000000000000000000000000000000000000815260040161094b90611368565b60405180910390fd5b60003411610997576040517f08c379a000000000000000000000000000000000000000000000000000000000815260040161098e906113d4565b60405180910390fd5b348160020160008282546109ab919061123e565b92505081905550346002600084815260200190815260200160002060003373ffffffffffffffffffffffffffffffffffffffff1673ffffffffffffffffffffffffffffffffffffffff1681526020019081526020016000206000828254610a12919061123e565b925050819055503373ffffffffffffffffffffffffffffffffffffffff167f31bf300ab0d6744e0eb21f627ac35f80ef6fe29526e04438e6c84773627444f08334604051610a619291906110a2565b60405180910390a25050565b6002602052816000526040600020602052806000526040600020600091509150505481565b600080600083815260200190815260200160002090508060030160009054906101000a900463ffffffff1663ffffffff164210610b04576040517f08c379a0000000000000000000000000000000000000000000000000000000008152600401610afb90611368565b60405180910390fd5b60006002600084815260200190815260200160002060003373ffffffffffffffffffffffffffffffffffffffff1673ffffffffffffffffffffffffffffffffffffffff16815260200190815260200160002054905060008111610b9c576040517f08c379a0000000000000000000000000000000000000000000000000000000008152600401610b9390611183565b60405180910390fd5b60006002600085815260200190815260200160002060003373ffffffffffffffffffffffffffffffffffffffff1673ffffffffffffffffffffffffffffffffffffffff1681526020019081526020016000208190555080826002016000828254610c0691906113f4565b925050819055503373ffffffffffffffffffffffffffffffffffffffff166108fc829081150290604051600060405180830381858888f19350505050158015610c53573d6000803e3d6000fd5b503373ffffffffffffffffffffffffffffffffffffffff167f56ffeaca347411dcfd7c1daa99ca509bdddc31c7c86cee59b23ccd1c88a925528483604051610c9c9291906110a2565b60405180910390a2505050565b600080fd5b6000819050919050565b610cc181610cae565b8114610ccc57600080fd5b50565b600081359050610cde81610cb8565b92915050565b600060208284031215610cfa57610cf9610ca9565b5b6000610d0884828501610ccf565b91505092915050565b600073ffffffffffffffffffffffffffffffffffffffff82169050919050565b6000610d3c82610d11565b9050919050565b610d4c81610d31565b82525050565b610d5b81610cae565b82525050565b600063ffffffff82169050919050565b610d7a81610d61565b82525050565b60008115159050919050565b610d9581610d80565b82525050565b600060a082019050610db06000830188610d43565b610dbd6020830187610d52565b610dca6040830186610d52565b610dd76060830185610d71565b610de46080830184610d8c565b9695505050505050565b610df781610d61565b8114610e0257600080fd5b50565b600081359050610e1481610dee565b92915050565b60008060408385031215610e3157610e30610ca9565b5b6000610e3f85828601610ccf565b9250506020610e5085828601610e05565b9150509250929050565b6000602082019050610e6f6000830184610d52565b92915050565b610e7e81610d31565b8114610e8957600080fd5b50565b600081359050610e9b81610e75565b92915050565b60008060408385031215610eb857610eb7610ca9565b5b6000610ec685828601610ccf565b9250506020610ed785828601610e8c565b9150509250929050565b600082825260208201905092915050565b7f43616d706169676e206973207374696c6c206f6e676f696e6700000000000000600082015250565b6000610f28601983610ee1565b9150610f3382610ef2565b602082019050919050565b60006020820190508181036000830152610f5781610f1b565b9050919050565b7f476f616c206e6f74207265616368656400000000000000000000000000000000600082015250565b6000610f94601083610ee1565b9150610f9f82610f5e565b602082019050919050565b60006020820190508181036000830152610fc381610f87565b9050919050565b7f4f6e6c79207468652063726561746f722063616e20636c61696d2066756e6473600082015250565b6000611000602083610ee1565b915061100b82610fca565b602082019050919050565b6000602082019050818103600083015261102f81610ff3565b9050919050565b7f46756e647320616c726561647920636c61696d65640000000000000000000000600082015250565b600061106c601583610ee1565b915061107782611036565b602082019050919050565b6000602082019050818103600083015261109b8161105f565b9050919050565b60006040820190506110b76000830185610d52565b6110c46020830184610d52565b9392505050565b7f43616d706169676e20726561636865642069747320676f616c00000000000000600082015250565b6000611101601983610ee1565b915061110c826110cb565b602082019050919050565b60006020820190508181036000830152611130816110f4565b9050919050565b7f4e6f20706c6564676520666f756e640000000000000000000000000000000000600082015250565b600061116d600f83610ee1565b915061117882611137565b602082019050919050565b6000602082019050818103600083015261119c81611160565b9050919050565b7f476f616c206d7573742062652067726561746572207468616e20300000000000600082015250565b60006111d9601b83610ee1565b91506111e4826111a3565b602082019050919050565b60006020820190508181036000830152611208816111cc565b9050919050565b7f4e487b7100000000000000000000000000000000000000000000000000000000600052601160045260246000fd5b600061124982610cae565b915061125483610cae565b925082820190508082111561126c5761126b61120f565b5b92915050565b600061127d82610d61565b915061128883610d61565b9250828201905063ffffffff8111156112a4576112a361120f565b5b92915050565b6000819050919050565b60006112cf6112ca6112c584610d61565b6112aa565b610cae565b9050919050565b6112df816112b4565b82525050565b60006060820190506112fa6000830186610d52565b6113076020830185610d52565b61131460408301846112d6565b949350505050565b7f43616d706169676e2068617320656e6465640000000000000000000000000000600082015250565b6000611352601283610ee1565b915061135d8261131c565b602082019050919050565b6000602082019050818103600083015261138181611345565b9050919050565b7f506c65646765206d7573742062652067726561746572207468616e2030000000600082015250565b60006113be601d83610ee1565b91506113c982611388565b602082019050919050565b600060208201905081810360008301526113ed816113b1565b9050919050565b60006113ff82610cae565b915061140a83610cae565b92508282039050818111156114225761142161120f565b5b9291505056fea2646970667358221220fbb6a68937e593046519a46ace12f4a4c53fbc1678aef5cb7810a8caec36dba064736f6c63430008180033",
  "linkReferences": {},
  "deployedLinkReferences": {}
}